{
  "_format": "hh-sol-artifact-1",
  "contractName": "Transactions",
  "sourceName": "contracts/Transactions.sol",
  "abi": [
    {
      "anonymous": false,
      "inputs": [
        {
          "indexed": false,
          "internalType": "address",
          "name": "from",
          "type": "address"
        },
        {
          "indexed": false,
          "internalType": "address",
          "name": "receiver",
          "type": "address"
        },
        {
          "indexed": false,
          "internalType": "uint256",
          "name": "amount",
          "type": "uint256"
        },
        {
          "indexed": false,
          "internalType": "string",
          "name": "message",
          "type": "string"
        },
        {
          "indexed": false,
          "internalType": "uint256",
          "name": "timestamp",
          "type": "uint256"
        },
        {
          "indexed": false,
          "internalType": "string",
          "name": "keyword",
          "type": "string"
        }
      ],
      "name": "Transfer",
      "type": "event"
    },
    {
      "inputs": [
        {
          "internalType": "address payable",
          "name": "receiver",
          "type": "address"
        },
        {
          "internalType": "uint256",
          "name": "amount",
          "type": "uint256"
        },
        {
          "internalType": "string",
          "name": "message",
          "type": "string"
        },
        {
          "internalType": "string",
          "name": "keyword",
          "type": "string"
        }
      ],
      "name": "addToBlockChain",
      "outputs": [],
      "stateMutability": "payable",
      "type": "function"
    },
    {
      "inputs": [],
      "name": "getAllTransactions",
      "outputs": [
        {
          "components": [
            {
              "internalType": "address",
              "name": "sender",
              "type": "address"
            },
            {
              "internalType": "address",
              "name": "receiver",
              "type": "address"
            },
            {
              "internalType": "uint256",
              "name": "amount",
              "type": "uint256"
            },
            {
              "internalType": "string",
              "name": "message",
              "type": "string"
            },
            {
              "internalType": "uint256",
              "name": "timestamp",
              "type": "uint256"
            },
            {
              "internalType": "string",
              "name": "keyword",
              "type": "string"
            }
          ],
          "internalType": "struct Transactions.TransferStruct[]",
          "name": "",
          "type": "tuple[]"
        }
      ],
      "stateMutability": "view",
      "type": "function"
    },
    {
      "inputs": [],
      "name": "getTransactionCount",
      "outputs": [
        {
          "internalType": "uint256",
          "name": "",
          "type": "uint256"
        }
      ],
      "stateMutability": "view",
      "type": "function"
    }
  ],
  "bytecode": "0x6080604052348015600f57600080fd5b50610a398061001f6000396000f3fe6080604052600436106100345760003560e01c806327506f53146100395780632e7700f014610064578063b2da096014610082575b600080fd5b34801561004557600080fd5b5061004e610097565b60405161005b9190610642565b60405180910390f35b34801561007057600080fd5b5060005460405190815260200161005b565b6100956100903660046107ab565b610252565b005b60606001805480602002602001604051908101604052809291908181526020016000905b828210156102495760008481526020908190206040805160c0810182526006860290920180546001600160a01b0390811684526001820154169383019390935260028301549082015260038201805491929160608401919061011c9061083c565b80601f01602080910402602001604051908101604052809291908181526020018280546101489061083c565b80156101955780601f1061016a57610100808354040283529160200191610195565b820191906000526020600020905b81548152906001019060200180831161017857829003601f168201915b50505050508152602001600482015481526020016005820180546101b89061083c565b80601f01602080910402602001604051908101604052809291908181526020018280546101e49061083c565b80156102315780601f1061020657610100808354040283529160200191610231565b820191906000526020600020905b81548152906001019060200180831161021457829003601f168201915b505050505081525050815260200190600101906100bb565b50505050905090565b6001600160a01b0384166102ad5760405162461bcd60e51b815260206004820152601860248201527f496e76616c69642072656365697665722061646472657373000000000000000060448201526064015b60405180910390fd5b600083116102fd5760405162461bcd60e51b815260206004820152601d60248201527f416d6f756e74206d7573742062652067726561746572207468616e203000000060448201526064016102a4565b6064825111156103425760405162461bcd60e51b815260206004820152601060248201526f4d65737361676520746f6f206c6f6e6760801b60448201526064016102a4565b6014815111156103875760405162461bcd60e51b815260206004820152601060248201526f4b6579776f726420746f6f206c6f6e6760801b60448201526064016102a4565b823410156103cf5760405162461bcd60e51b8152602060048201526015602482015274125b9cdd59999a58da595b9d08115512081cd95b9d605a1b60448201526064016102a4565b6000846001600160a01b03168460405160006040518083038185875af1925050503d806000811461041c576040519150601f19603f3d011682016040523d82523d6000602084013e610421565b606091505b50509050806104685760405162461bcd60e51b8152602060048201526013602482015272115512081d1c985b9cd9995c8819985a5b1959606a1b60448201526064016102a4565b600160008082825461047a9190610876565b90915550506040805160c0810182523381526001600160a01b03878116602083019081529282018781526060830187815242608085015260a08401879052600180548082018255600091909152845160069091027fb10e2d527612073b26eecdfd717e6a320cf44b4afac2b0732d9fcbe2b7fa0cf6810180549286166001600160a01b031993841617815596517fb10e2d527612073b26eecdfd717e6a320cf44b4afac2b0732d9fcbe2b7fa0cf7820180549190961692169190911790935590517fb10e2d527612073b26eecdfd717e6a320cf44b4afac2b0732d9fcbe2b7fa0cf8830155519192917fb10e2d527612073b26eecdfd717e6a320cf44b4afac2b0732d9fcbe2b7fa0cf99091019061059290826108ec565b506080820151600482015560a082015160058201906105b190826108ec565b5050507f416cfa4330a4565f45c2fd2dd4826a83a37443aba2ce6f79477c7355afac35fa3386868642876040516105ed969594939291906109ab565b60405180910390a15050505050565b6000815180845260005b8181101561062257602081850181015186830182015201610606565b506000602082860101526020601f19601f83011685010191505092915050565b6000602082016020835280845180835260408501915060408160051b86010192506020860160005b828110156106fa57603f19878603018452815160018060a01b03815116865260018060a01b03602082015116602087015260408101516040870152606081015160c060608801526106be60c08801826105fc565b90506080820151608088015260a0820151915086810360a08801526106e381836105fc565b96505050602093840193919091019060010161066a565b50929695505050505050565b634e487b7160e01b600052604160045260246000fd5b600082601f83011261072d57600080fd5b813567ffffffffffffffff81111561074757610747610706565b604051601f8201601f19908116603f0116810167ffffffffffffffff8111828210171561077657610776610706565b60405281815283820160200185101561078e57600080fd5b816020850160208301376000918101602001919091529392505050565b600080600080608085870312156107c157600080fd5b84356001600160a01b03811681146107d857600080fd5b935060208501359250604085013567ffffffffffffffff8111156107fb57600080fd5b6108078782880161071c565b925050606085013567ffffffffffffffff81111561082457600080fd5b6108308782880161071c565b91505092959194509250565b600181811c9082168061085057607f821691505b60208210810361087057634e487b7160e01b600052602260045260246000fd5b50919050565b8082018082111561089757634e487b7160e01b600052601160045260246000fd5b92915050565b601f8211156108e757806000526020600020601f840160051c810160208510156108c45750805b601f840160051c820191505b818110156108e457600081556001016108d0565b50505b505050565b815167ffffffffffffffff81111561090657610906610706565b61091a81610914845461083c565b8461089d565b6020601f82116001811461094e57600083156109365750848201515b600019600385901b1c1916600184901b1784556108e4565b600084815260208120601f198516915b8281101561097e578785015182556020948501946001909201910161095e565b508482101561099c5786840151600019600387901b60f8161c191681555b50505050600190811b01905550565b6001600160a01b038781168252861660208201526040810185905260c0606082018190526000906109de908301866105fc565b84608084015282810360a08401526109f681856105fc565b999850505050505050505056fea2646970667358221220bdae6ace91d62dee4d19bd5cba1df33d9a7921dcc7124da3b83ad88a4b84916b64736f6c634300081c0033",
  "linkReferences": {},
  "deployedLinkReferences": {}
}